:100000000C94D5040C94F2040C94F2040C94F204B5
:100010000C94F7230C94F2040C94F2040C94F20464
:100020000C94F2040C94F2040C94BD200C949521D1
:100030000C948F0E0C94F2040C94F2040C94F204C1
:100040000C94F2040C94F2040C94F2040C94F20458
:100050000C94F2040C9499200C94F2040C94F20485
:100060000C94F2040C94F2040C94F2040C94F20438
:100070000C94F2040C94F2040C94F2040C94F20428
:100080000C94F2040C94F2040C94F2040C94F20418
:100090000C94F2040C94F2040C94F2040C94F20408
:1000A0000C94F2040C94F2040C94F20400AF00AE31
:1000B0000000000000003E5B4F5B3E003E6B4F6B5C
:1000C0003E001C3E7C3E1C00183C7E3C18001C5729
:1000D0007D571C001C5E7F5E1C0000183C18000051
:1000E000FFE7C3E7FF00001824180000FFE7DBE785
:1000F000FF0030483A060E00262979292600407F65
:1001000005050700407F05253F005A3CE73C5A00A3
:100110007F3E1C1C0800081C1C3E7F0014227F220E
:1001200014005F5F005F5F0006097F017F000066CB
:1001300089956A0060606060600094A2FFA29400EC
:1001400008047E04080010207E20100008082A1CE5
:100150000800081C2A0808001E10101010000C1EB1
:100160000C1E0C0030383E383000060E3E0E0600E5
:1001700000000000000000005F0000000007000712
:100180000000147F147F1400242A7F2A12002313F6
:10019000086462003649562050000008070300003A
:1001A000001C224100000041221C00002A1C7F1C70
:1001B0002A0008083E080800008070300000080887
:1001C0000808080000006060000020100804020019
:1001D0003E5149453E0000427F4000007249494976
:1001E00046002141494D33001814127F1000274565
:1001F000454539003C4A4949310041211109070070
:10020000364949493600464949291E000000140074
:1002100000000040340000000008142241001414C3
:1002200014141400004122140800020159090600A8
:100230003E415D594E007C1211127C007F494949B4
:1002400036003E41414122007F4141413E007F490D
:10025000494941007F09090901003E4141517300AC
:100260007F0808087F0000417F4100002040413F97
:1002700001007F08142241007F40404040007F027F
:100280001C027F007F0408107F003E4141413E0078
:100290007F09090906003E4151215E007F091929A5
:1002A000460026494949320003017F0103003F40CF
:1002B00040403F001F2040201F003F4038403F008B
:1002C0006314081463000304780403006159494D62
:1002D0004300007F4141410002040810200000411A
:1002E00041417F00040201020400404040404000C0
:1002F0000003070800002054547840007F2844443D
:100300003800384444442800384444287F00385496
:100310005454180000087E0902001824241C780098
:100320007F080404780000447D4000002040403DE8
:1003300000007F102844000000417F4000007C0442
:10034000780478007C080404780038444444380079
:100350007C1824241800182424187C007C08040429
:10036000080048545454240004043F4424003C40F2
:1003700040207C001C2040201C003C4030403C00C1
:100380004428102844004C9090907C004464544CC5
:1003900044000008364100000000770000000041E2
:1003A000360800000201020402003C2623263C001D
:1003B000000000000000000000000000000000003D
:1003C000C0E0F0F8F81800C0F0FCFEFFFFFFFFFFF0
:1003D000FFFF7E00000000000000000080C0E0E0A1
:1003E000E0E0E0E0E0E0C0800000000080C0E0E08D
:1003F000E0E0E0E0E0E0C080000000E0E0C0C0E05D
:10040000E0E0E00000E0E0C0C0E0E0E0E0E0C0806C
:100410000000000080C0E0E0E0E0E0E0E0E0C0805C
:100420000000000000000000000000000000E0F0FC
:10043000F0F0E0ECEEF7F37020007C7C7C7E007E38
:100440007E7E7F7F7F000080C0E07E5B4F5BFEC0D2
:100450000000C000DCD7DEDEDED7DC00C00000001C
:10046000000000000000000000000000000000008C
:10047000000000000000000000F8FCFEFFE000FFAC
:10048000FFFFFFFFFF80FFFFFFFFFFFFFFFFFF1FDB
:100490000701000000000000000000FFFFFF8100D6
:1004A000000000000081C3C3C30000FFFFFF810004
:1004B000000000000081FFFFFF0000FFFFFF0100C0
:1004C0000000000000FFFFFF010000000001FFFF2F
:1004D000FF0000FFFFFF9D1C1C1C1C1C1C9DDFDF80
:1004E000DF000000000000000000000000000F1FFF
:1004F0003F7F7F7F7F7F3F1E0C001F1F1F3F003FFE
:100500003F3F7F7F7F00307B7F7830202030787FB7
:100510003B0003000F7F0F0F0F7F0F000300000051
:1005200000000000000000000000000000000000CB
:10053000000000000000000000030F1F3F3F3F3F8E
:100540001F1F3F3F7F7F7F3F3F1F3F7F7F7F7F7C1E
:100550007878381C0F000000000000000103070736
:10056000070707070707030100000000010307074B
:100570000707070707070301000000070707000038
:100580000000000000070707000000000000070748
:100590000700000001030707070707070707030114
:1005A000000000000000000000000000000000004B
:1005B000000000000000000000000000000000003B
:1005C000000000000000000000000000000000002B
:1005D000000000000000000000000000000000001B
:1005E000000000000000000000000000000000000B
:1005F00005010902A10185020901A10005091901EE
:1006000029081500250195087501810205010930A9
:1006100009311581257F95027508810609381581F4
:10062000257F950175088106050C0A38021581257C
:100630007F950175088106C0C005010980A101856B
:100640000319012AB700150126B70095017510811D
:1006500000C0050C0901A101850419012AA0021599
:100660000126A002950175108100C005010906A1AF
:10067000018506050719E029E7150025019508758C
:100680000181020507190029EF1500250195F07574
:100690000181020508190129059505750191029549
:1006A0000175039101C005010906A101050719E0C3
:1006B00029E7150025019508750181029501750846
:1006C00081010507190029FF150026FF0095067511
:1006D00008810005081901290515002501950575F2
:1006E000019102950175039101C009023B000201CD
:1006F00000A0FA0904000001030101000921110111
:1007000000012244000705810308000109040100DB
:10071000010300000009211101000122B6000705B4
:10072000820320000112010002000000085346016C
:10073000000100010200010C0343006F0072006E13
:100740000065000000100366006F006F0073007406
:100750000061006E0000000403090400DA0281FF5A
:10076000D9F1DB20A4A62EAF00A0C0D30000A1C801
:10077000D30000AED580A81F408D14200080818258
:10078000838485868788898A8B8C8D8E8F909192C1
:100790009394A0A1A2A3A4A5A6A7A8A9AAABACAD17
:1007A000AEAFB0B1B2B3B4C0C1C2C3C4C5C6C7C88E
:1007B000C9CACBCCCDCECFD0D1D2D3D4003A002C25
:1007C000206B007800556E6465660041646A75733D
:1007D00074005261697365004C6F776572004465FF
:1007E0006661756C74004C617965723A20002B006B
:1007F00014001A00080015001700E000040016009D
:10080000070009000A00E1001D001B000600190096
:100810000500000000000000E30021522C002A0027
:10082000130012000C0018001C00340033000F00ED
:100830000E000D000B0029003800370036001000B4
:100840001100000000000000E600225228002B00EA
:100850001E001F00200021002200E0000000000018
:10086000000000000000E1000000000000000000A7
:100870000000000000000000E30001002C002A003E
:1008800027002600250024002300000000004F0060
:100890005200510050000000000000000000000065
:1008A0000000000000000000E600235228002B009A
:1008B0001E021F02200221022202E00000000000AE
:1008C000000000000000E100000000000000000047
:1008D0000000000000000000E30023522C002A006A
:1008E00027022602250224022302350031003000AF
:1008F0002F002E002D003502310230022F022E0271
:100900002D02000000000000E60001002800007C2D
:100910000000000000000000000020782378257807
:1009200027780000000021782478267828780000B5
:100930000000000000000000E30001002C000000A7
:1009400000000000000000000000000000000000A7
:100950000000000000000000000000000000000097
:100960000000000000000000E60001002800202038
:1009700020206162636465666768696A6B6C6D6E8E
:100980006F707172737475767778797A3132333427
:10099000353637383930524542545F2D3D5B5D5C0A
:1009A000233B27602C2E2F20202011241FBECFEFA9
:1009B000DAE0DEBFCDBF11E0A0E0B1E0E4EDFCE4A1
:1009C00002C005900D92A837B107D9F724E0A8E737
:1009D000B1E001C01D92A53EB207E1F70E94721B73
:1009E0000C9416260C94000090939D0480939C0414
:1009F000089590939F0480939E04089521E030E031
:100A000002C0220F331F8A95E2F780919E049091D5
:100A10009F04822B932B0E94F904089521E030E07B
:100A200002C0220F331F8A95E2F7209530958091FE
:100A30009E0490919F04822393230E94F9040895B9
:100A4000983090F5863080F5E82FF0E086E0989FAA
:100A5000E00DF11D11248E2F877041E001C0440F7D
:100A60008A95EAF783E0F695E7958A95E1F7EE0F28
:100A7000FF1FEE0FFF1FEE58FB4F20E030E070E04D
:100A80005191DF01CB01022E02C0969587950A9401
:100A9000E2F7817081958527842385278E932F5FC8
:100AA0003F4F2430310561F70895983078F586304E
:100AB00068F5E82FF0E086E0989FE00DF11D112425
:100AC0009E2F977083E0F695E7958A95E1F7EE0FF4
:100AD000FF1FEE0FFF1FEE58FB4F40E050E080E09D
:100AE000219130E0092E02C0369527950A94E2F74D
:100AF00021703327042E01C0220F0A94EAF7822BBB
:100B00004F5F5F4F4430510559F7089580E00895D5
:100B10008091A5049091A404981301C008958F5F5B
:100B20008770FACF9091A004809589238093A004C8
:100B3000282F277021110DC0891759F09091A20418
:100B400092FF07C08695869586950E940E051092A5
:100B5000A0040895809199049091A304892B509149
:100B60009A04511591F090912C01911521F09091DA
:100B7000A10497FD0BC096E02CE731E040E09150D6
:100B800048F4411110929A04852B08959EE124E8BF
:100B900031E0F4CFF90161919F01611581F34F5F5D
:100BA000EECF982F90958091990489238093990492
:100BB00008957830B8F46630A8F48430B0F4E62FA5
:100BC000F0E096E0799FE00DF11D112490E3899FFC
:100BD000E00DF11D1124EE0FFF1FE251F84F85913A
:100BE0009591089580E090E0089581E0FCCF9C010C
:100BF000803E910509F448C0D8F48133910509F489
:100C00007DC048F48932910509F46DC08A9709F4D2
:100C10007CC0C90108958933910551F1823891054D
:100C200039F1C597B1F78091A10485FFF2CF29C0B2
:100C3000843E910509F447C048F4823E910599F13C
:100C4000833E9105A9F121EE30E0E3CF863E910588
:100C500009F444C0873E9105E1F68091A10483FD2B
:100C600061C09091A20491FF2BC024EE30E0D1CF5F
:100C70008091A1048370811152C08091A20483FFEE
:100C8000C8CF29E230E0C5CF8091A10480FD33C0F8
:100C90009091A20490FFBDCF23EE30E084FFB9CF46
:100CA00020E030E0B6CF8091A10482FDF5CFB1CF36
:100CB0008091A10482FD30C09091A20490FD2FC0CC
:100CC00084FFA7CFEDCF8091A20481FFA2CF8091B6
:100CD000A10427EE30E084FDE3CF9BCF8091A104F7
:100CE00083FDF7CF96CF8091A10485FD1EC0809132
:100CF000A20483FF8ECF29E330E08BCF8091A10443
:100D000086FF87CF2AE230E084CF8091A10486FF5E
:100D100080CF21E330E07DCF22EE30E07ACF20EEAD
:100D200030E077CF26EE30E074CF25E330E071CFAE
:100D30009091A10492FF10C041E0282F247124302B
:100D400009F040E031E0282F2871283009F030E028
:100D5000431711F02CE0822793FF10C041E0282FA9
:100D60002471243109F040E031E0282F2871283126
:100D700009F030E0431711F02CE082273091A204F3
:100D800030FF10C051E0282F2171213009F050E0D0
:100D900041E0282F2871283009F040E0541711F065
:100DA00029E0822731FF10C041E0282F2171213135
:100DB00009F040E031E0282F2871283109F030E0B7
:100DC000431711F029E0822794FD877E08951F9331
:100DD000CF93DF930E94F705EC01811522E592077E
:100DE00008F055C0811540E5940708F0D1C0803E59
:100DF000910520F58D3C910508F0A4C0883A910535
:100E000070F4853A910508F09AC081309105D1F1CE
:100E10000497813A9105B0F1C0E0D0E033C0885A20
:100E200091094B97C8F7C85AD0E0CC0FDD1FCE5BB5
:100E3000DE4F0990D881C02DD46424C0811550E4C0
:100E40009507C0F4C11580E2D80708F0B7C0C83EC6
:100E5000D105C0F0CE019A9581159F41E8F68D2FFE
:100E60000E949806182FCE0199270E94F705EC01E1
:100E7000D12B08C099270E94F705CC27DF70C82B1B
:100E8000D92BD06ACE01DF91CF911F910895803880
:100E900042E59407C8F5803652E5950708F05BC037
:100EA000C03482E5D807D0F4C03292E5D90708F003
:100EB0004BC08C2F8695869520E2829FC00111241D
:100EC000C37021E030E0A90102C0440F551FCA954C
:100ED000E2F7EA01C82BD92BDD68D4CF8C2F869599
:100EE0008695877050E2859FC0011124C37021E070
:100EF00030E0A90102C0440F551FCA95E2F7EA018C
:100F0000C82BD92BDC68BECF803C52E5950758F43E
:100F10008F71C03AD245A0F590E0982F8827EC0158
:100F2000C46FD06AAFCF805C9245809708F074CFD1
:100F3000DC2FCC27CC27DF71C06FD06AA3CFA4975A
:100F4000D064A0CFD0659ECFCF71D0E0DC2FCC276E
:100F5000C16FD06A97CF86958695877020E2829F71
:100F6000C0011124C37021E030E0A90102C0440F88
:100F7000551FCA95E2F7EA01C82BD92BDA6882CF50
:100F80000E949806C82FD0E0DC2FCC27D0627ACF01
:100F90008F710E94980693E0CC0FDD1F9A95E1F7C0
:100FA000CC27DF70282F30E084FF04C050E1859FFC
:100FB00090011124C22BD32BD06964CF8D2F8F7158
:100FC0000E949806182FCE0199270E94F705EC0180
:100FD000D12BDCCFA0E0B0E0E0EFF7E00C942F25C0
:100FE0008C01E0909E04F0909F0480919C0490916D
:100FF0009D04E82AF92ACFE0D0E0CC24C394D12C78
:10100000C6010C2E02C0880F991F0A94E2F78E21A8
:101010009F21892B49F4219798F7B12C8B2DCDB7BF
:10102000DEB7E9E00C944B25BC2EB8018C2F0E9452
:10103000D9050E94E706019771F3F0CF0F931F9334
:10104000CF93FC01858100811181811591F061159B
:1010500081F0C8010E94EA07C82F682FC8010E94CA
:101060002005B8018C2F0E94D905CF911F910F91B7
:101070000895C8010E945505C82FF3CFCF93DF9381
:10108000D82FC92F0E94EA076D2F7C2F0E94D90507
:101090000E94E706DF91CF910895FC0184818115BC
:1010A000A1F0808191810E943E08282F92959F7027
:1010B000963099F060F4925F9F70923030F4203F48
:1010C000B1F038F481E0283E38F080E008959A5F6E
:1010D000F3CF81E0243FC9F7089591E0213F09F063
:1010E00090E081E0283E08F080E0892B089581E0BF
:1010F000089580E00895F894E82FE295EF70F0E00D
:1011000041A18F7021E030E0B90102C0660F771F66
:101110008A95E2F7CB01962F9095942391A392A103
:10112000892B82A378940895282F35EB2303C001DF
:10113000112497FF04C080589109892F0895805881
:101140009F4FFBCF80918C0480FD14C081FD14C0A3
:1011500082FD16C080918B04811581F08E3180F460
:1011600020E5829FC00111246EE170E00E94692594
:10117000862F089584E1089588E2089588E008950F
:1011800080E5089580918C0480FD17C081FD17C013
:1011900082FD19C080918A04811599F0883298F4F3
:1011A00028E0829FC001112468E270E00E94692556
:1011B0006115710551F0862F089562E0FCCF64E05F
:1011C000FACF61E0F8CF68E0F6CF81E00895809132
:1011D0004004811559F0E0916804F091690430975A
:1011E00029F00190F081E02D0995089580E008959F
:1011F000A3E0B0E0EEEFF8E00C9436259C0180917E
:10120000CC019091CD0182179307A1F03093CD01CD
:101210002093CC01E0916804F0916904309751F07B
:1012200083E089833B832A830084F185E02DCE010E
:10123000019609952396E2E00C945225A3E0B0E0D4
:10124000E4E2F9E00C9436259C018091CA0190916A
:10125000CB0182179307A1F03093CB012093CA01F1
:10126000E0916804F0916904309751F084E089833B
:101270003B832A830084F185E02DCE0101960995F8
:101280002396E2E00C94522590912C01911112C00A
:10129000ACE7B1E0EFEF90E02D91821751F0EF3F16
:1012A00019F4211101C0E92F9F5F9630A9F7EF3F94
:1012B000C9F408959091A10497FFEACFE82FE6952D
:1012C000E695E695803FA8F7F0E0EE57FE4F877071
:1012D00021E030E001C0220F8A95EAF78281822B5B
:1012E000828308950E2E000CFF0BE658FE4FF8CFB8
:1012F00090912C01911521F09091A10497FD0CC0C3
:10130000ECE7F1E09191891302C0DF011E9251E0F8
:10131000E238F507B9F70895E82FE695E695E695E2
:10132000803FC8F7F0E0EE57FE4F877021E030E0D5
:10133000A90102C0440F551F8A95E2F7CA018095A2
:1013400092818923828308952FB7F89460912B04AA
:1013500070912C0480912D0490912E042FBF08953C
:10136000CF92DF92EF92FF9280914004811559F065
:101370000E94A4096B017C01C701B601FF90EF90A8
:10138000DF90CF9008950E94A409C0904204D090AD
:101390004304E0904404F0904504C60ED71EE81EB6
:1013A000F91EEACF87E797E790930108809300083A
:1013B00088E19AE00FB6F894A895809360000FBE7C
:1013C00090936000FFCF8091C9010895FC019B01BB
:1013D0008091BF019091C0018617970740F0672B5D
:1013E00029F48091E8008E778093E800C90140E0FD
:1013F000009741F4411106C08091E80082FF2FC0A0
:1014000080E008952091DA012115A9F12530A9F194
:101410002091E80023FD2DC02091E80022FDECCFB3
:101420002091E80020FFE4CF3091F3002091F200FA
:10143000009719F02830310558F041E02830310587
:1014400009F040E02091E8002E772093E800D0CF0B
:1014500041914093F10001972F5F3F4FE9CF809179
:10146000DA01811541F0853041F08091E80083FF79
:10147000C3CF81E0089582E0089583E008958091CC
:10148000B90187FF13C08091E80082FF06C08091F8
:10149000E8008B778093E80008958091DA0181114C
:1014A000F2CF08958091DA018115D9F38091E80097
:1014B00080FFF8CF8091E8008E77ECCF2091E40098
:1014C0003091E50095E6A9012091EC00822F817012
:1014D00020FF06C08091E80080FF06C080E00895EC
:1014E0002091E80022FD1AC08091DA01811589F06F
:1014F000853089F08091EB0085FD0FC02091E400DC
:101500003091E50042175307F9F29A95E1F684E02D
:10151000089582E0089583E0089581E00895E8ED5C
:10152000F0E080818E7F80831092E2001092DA00DA
:101530001092E100A0EEB0E08C9181608C938081EC
:101540008F77808319BCA7EDB0E08C918E7F8C9350
:1015500080818F7E80831092B8010895FC01AC01D8
:101560004C5F5F4F8FEF61E39191892728E030E076
:10157000982F990F87FF09C0892F86272150304067
:10158000B9F7E417F50781F70895892FF7CF982F5A
:101590009093E900891771F07091EC002091ED00B3
:1015A0005091F00021FD09C09F5F973089F780932B
:1015B000E9000895762F242F50E03091EB003E7F14
:1015C0003093EB003091ED003D7F3093ED00309192
:1015D000EB0031603093EB007093EC002093ED0052
:1015E0005093F0002091EE0027FDDECF0895A0E09B
:1015F000B0E0EDEFFAE00C943025C8EDD0E0888142
:101600008F7E8883E7EDF0E080818160808384E0D5
:1016100082BF81E08093B80188818E7F888302EE4B
:1016200010E0F80110821092DA0081EEC82ED12C61
:10163000F601108288818F7788838881806888830B
:1016400088818F7D888319BC1092DA011092B701CE
:101650001092D9011092B60190EEE92EF12CF7010B
:1016600080818B7F808388818160888342E060E015
:1016700080E00E94C70AF60180818E7F8083F80196
:10168000808181608083808188608083F701808190
:101690008E7F8083888180618883CDB7DEB7E8E064
:1016A0000C944C25E091A5049091A40427E0E91343
:1016B00002C080E00895AE2FB0E02E9FF00111240B
:1016C000EA55FB4F3181361306C03081381303C011
:1016D0003581341304C0FD013196E770E8CF81E015
:1016E00008950F931F93CF93DF938B01EA0190919D
:1016F000DA01943059F58093E9008FEF9091E8007A
:1017000095FD06C095ED9A95F1F700008A95B1F721
:101710008091E80085FF1AC00E945E0A811111C005
:101720008091E80085FD06C08091E8008E77809367
:10173000E800F2CFF80181918F018093F1002197A9
:1017400079F78091E8008E778093E800DF91CF9160
:101750001F910F910895CF93DF93D82FC92F48E0A1
:1017600050E0682F792F81E00E94710B88E0ED2F07
:10177000FC2FA1ECB1E001900D928A95E1F7DF9189
:10178000CF910895BC0140E250E082E00E94710BCD
:101790000895BC0146E050E082E00E94710B08957C
:1017A000BC0143E050E082E00E94710B0895A0E08C
:1017B000B0E0EDEDFBE00C942E25182F092FB62E8E
:1017C000A72E7A018091AC019AE0C92ED12C8A30E3
:1017D00018F0CC24C394D12CC1E0D0E06B2D7A2D2D
:1017E000812F902FF7010995811116C02196CC16F3
:1017F000DD0694F0CC9FC001CD9F900D900D11247B
:1018000020E030E045E34A95F1F700002F5F3F4FBD
:1018100028173907B9F7E2CFCDB7DEB7EAE00C9465
:101820004A259091A20492FB222720F9281779F0EB
:1018300080FB92F99093A2046091A1047091A2049C
:1018400084E090E00E94002682E00E9492050895C4
:1018500080912C01811559F18091A10487FF27C047
:101860000E94AA058093830140E250E068E474E09E
:1018700082E891E00E94AE25892BC1F080E2E2E887
:10188000F1E0A8E4B4E001900D928A95E1F7E091CF
:101890006804F0916904309749F086E080938201F2
:1018A0000480F581E02D82E891E0099508950E9479
:1018B000AA0580937A0148E050E06AE674E08AE77E
:1018C00091E00E94AE25892B89F388E0EAE7F1E0F8
:1018D000AAE6B4E001900D928A95E1F7E0916804E0
:1018E000F0916904309711F30280F381E02D8AE7CB
:1018F00091E0DBCF811539F090919904892B809389
:1019000099040E94280C0895811521F00E94D105A8
:101910000E94280C0895A4E0B0E0E1E9FCE00C94FA
:101920003525409127045091280460912904709135
:101930002A042FB7F89480912B0490912C04A09145
:101940002D04B0912E042FBF841B950BA60BB70B53
:1019500011E084369105A105B10578F10E94B00926
:10196000DC01CB010296A11DB11D89839A83AB8353
:10197000BC838091250190912601815D9B4F209130
:101980002401422F50E0253010F044E050E0BE0129
:101990006F5F7F4F0E94BB2582E090E00E949E24F3
:1019A000182F811551F00E94A409609327047093A9
:1019B00028048093290490932A04812F2496E3E03D
:1019C0000C945125EF92FF921F93CF93DF9300D099
:1019D00000D00F92CDB7DEB77B0180E090E00E948F
:1019E0009E24182F811509F46DC080911701482F8E
:1019F00050E0811511F041E050E0609118017091C4
:101A00001901615D7B4FCE0105960E94BB25409177
:101A10003C0450913D0460913E0470913F042FB707
:101A2000F89480912B0490912C04A0912D04B091F6
:101A30002E042FBF841B950BA60BB70B8436910584
:101A4000A105B10538F480E394E00E94AE0A9D81BF
:101A50008917C1F181E090E00E949E24811509F46C
:101A60003FC080911F01482F50E0853010F044E0C6
:101A700050E06091200170912101615D7B4FCE01AA
:101A800001960E94BB2580E394E00E94AE0A9D81EE
:101A9000891326C00E94A40960933C0470933D04FE
:101AA00080933E0490933F0489819A81AB81BC81ED
:101AB0008093380490933904A0933A04B0933B0484
:101AC00081E00FC08091300490913104A0913204E4
:101AD000B091330489839A83AB83BC831111E4CF23
:101AE00080E0409138045091390460913A0470913B
:101AF0003B04F70140835183628373830F900F90FF
:101B00000F900F900F90DF91CF911F91FF90EF906A
:101B10000895AB0124E630E0BC0188E70E94BA22B8
:101B20009C0181E0232B09F080E00895809121043D
:101B3000811569F080911E04811549F062E070E022
:101B40008EEA90E00E94890D811110921E04089582
:101B5000809121048115F9F00E94A409DC01CB01D8
:101B6000805A9541AF4FBF4F80931A0490931B0446
:101B7000A0931C04B0931D0480911E0481110BC01E
:101B800062E070E08CEA90E00E94890D811519F006
:101B900081E080931E040895CF93DF93682F81E046
:101BA0006A3019F06D3031F480E00E944C0EDF9104
:101BB000CF9108958091EC019091ED0126E0FC0118
:101BC000AFEAB1E001900D922A95E1F7603E08F48A
:101BD00058C026E0FC0111922A95E9F7C091EC016A
:101BE000D091ED0146E050E0BE018FEA91E00E9405
:101BF000AE259E0126513240892B41F1C90145E0B5
:101C0000969587954A95E1F741E050E0BA0102C008
:101C1000660F771F8A95E2F7CB01609118047091E7
:101C20001904862B972BB9016B5F7F4FE5E0769502
:101C30006795EA95E1F702C0440F551F6A95E2F7F0
:101C4000842B952B90931904809318042A5F3F4F9F
:101C50004091EE01642F70E0C9010E941225481BDB
:101C6000463010F4240F311D211572E0370710F0B3
:101C700020E030E02A5E3D4F3093ED012093EC01EF
:101C800096CFF6E06F9FB001112460557F4F46E07C
:101C900050E00E94A525A2CFCF93382FE091EC0110
:101CA000F091ED01E651F2402091EE01622F70E0DB
:101CB000CF010E941225281B822F311561F066E0AA
:101CC0000E945D25C82FC15010F4CF91089580E285
:101CD0000E94CC0DF8CF8E0F9F2F911D811522E011
:101CE000920710F080E090E08A5E9D4F9093ED01A6
:101CF0008093EC01EACFCF93DF93EC01FE01849156
:101D0000811103C0DF91CF9108950E94CC0D2196DF
:101D1000F5CF0E947B0E81E00E944C0E08951F9229
:101D20001FB61F9211248F939F93AF93BF938091FF
:101D3000D801811113C080912B0490912C04A091A3
:101D40002D04B0912E044196A11DB11D80932B044A
:101D500090932C04A0932D04B0932E04BF91AF91C7
:101D60009F918F911F901FBE1F9018952FB7F894C9
:101D700080912B0490912C04A0912D04B0912E04FD
:101D80002FBF08950E94B60E20918F0430919004C9
:101D9000232B211521F08093240490932504209176
:101DA000910430919204232B211521F08093220479
:101DB00090932304E0916804F0916904309749F00E
:101DC00082E080938D040680F781E02D8DE894E019
:101DD00009950895611509F44BC0E3E3E80FE33179
:101DE00050F4F0E0E85EF94D0C949F250E94A208A3
:101DF0008195809390040E94C20E08950E94A208CB
:101E0000F8CF0E94A208819580938F04F4CF0E949E
:101E1000A208FACF0E94C20880939104ECCF0E94DE
:101E2000C2088195F9CF0E94C208819580939204DF
:101E3000E2CF0E94C208FACF815D990B21E030E029
:101E400001C0220F8A95EAF780918E04822B80933D
:101E50008E04D1CF80918C04816080938C04CBCF91
:101E600080918C048260F9CF80918C048460F5CFDE
:101E700040918F048D3C59F48091900487FF0DC0F0
:101E800010929004411559F410928B0408C08E3CB6
:101E900081F48091900418169CF3411581F0809193
:101EA000910490919204892B8111A5CF10928A04FC
:101EB000A2CF8F3C41F447FFF0CF10928F04809166
:101EC00090048115E0CF803D19F41416B4F3E5CFEA
:101ED00090919104893D29F41916FCF61092910411
:101EE000DCCF8A3D19F497FFD8CFF8CF90919204B8
:101EF0008B3D29F497FFD1CF10929204CECF8C3D29
:101F000019F41916CCF3C9CF9FE2980F983090F4CA
:101F1000815D990B21E030E0B90102C0660F771FA7
:101F20008A95E2F7CB01809590918E048923809366
:101F30008E04B3CF8D3D31F480918C048E7F8093DD
:101F40008C04ABCF8E3D21F480918C048D7FF7CF34
:101F50008F3D09F0A2CF80918C048B7FF0CFCF937F
:101F6000C82F8115D9F08CEF8C0F813AA8F580919C
:101F70002C01811521F08091A10487FD11C0ECE7AF
:101F8000F1E082E891E02191C21701F18E179F07DD
:101F9000D1F78C2F0E9444090E94280CCF910895FC
:101FA000EC2FE695E695E695F0E0EE57FE4F828140
:101FB00090E04C2F477021E030E002C0220F331F29
:101FC0004A95E2F782239323892B19F38C2F0E94E1
:101FD00078090E94280CDDCF80E28C0F883068F4ED
:101FE000C77081E090E001C0880FCA95EAF7C09100
:101FF0009904C82BC0939904CFCF8BE58C0F833005
:1020000038F42C2F2452330BC9010E94F808C6CF94
:10201000E8E5EC0FEB3150F4F0E0EE0FFF1FEE5B64
:10202000FE4F808191810E941E09B8CF83E38C0FFF
:10203000833108F0B3CF61E08C2F0E94EA0EAECF5F
:10204000811581F19CEF980F913A28F40E9478094C
:102050000E94280C089590E2980F983050F48770F1
:1020600091E001C0990F8A95EAF7892F0E94D10566
:10207000EFCF9BE5980F933028F480E090E00E942A
:10208000F808089598E5980F9B3128F480E090E0D7
:102090000E941E09089593E3980F933118F460E0AD
:1020A0000E94EA0E08951092990480912C018115E6
:1020B00039F18091A10487FF23C0E4E8F1E08EE1CB
:1020C000DF011D928A95E9F780E090E00E94F80810
:1020D00080E090E00E941E091092A3040E94280C48
:1020E00086E0EDE8F4E0DF011D928A95E9F71092B1
:1020F0008B0410928A0410928C040E94C20E0895E0
:10210000ECE7F1E086E0DCCF0E9453102FEF84E390
:102110009CE0215080409040E1F700C0000088E141
:102120009AE00FB6F894A895809360000FBE909344
:102130006000FFCFAAE2B0E0E0EAF0E10C943525C0
:1021400089EB91E0FC0101962091F100208321E0D0
:10215000813C9207B9F78091BA01893009F456C0E1
:10216000C8F4823009F4B2C0833009F481C08130F0
:1021700071F18091E80083FFE6C08091B9019091F0
:10218000BA019A3008F0DFC0E92FF0E0E55DF94DC3
:102190000C949F258A3009F488C08B3051F78091C8
:1021A000B901813231F78091BD019091BE01892B37
:1021B00001F78091E800877F8093E8000E943F0A42
:1021C0008091BB0180932C010E945310D2CF80914B
:1021D000B901813A71F68091E800877F8093E80029
:1021E0008091BD019091BE01892B61F060E080E09B
:1021F00090E070E00E94E6098091E8008B77809380
:10220000E800B7CF68E081EC91E0F3CF8091B901AD
:10221000813209F0AECF8091BD019091BE0102974D
:1022200008F0A7CF8091E800877F8093E800809135
:10223000E80082FF18C09091F3008091F2000297AD
:1022400031F48091F100813011F0863021F48091D9
:10225000F1008093C9018091E8008B778093E800BA
:102260000E943F0A86CF8091DA018111E0CF81CFB1
:102270008091B901813A09F07CCF8091BD019091A4
:10228000BE01892B09F075CF8091E800877F80938C
:10229000E8008091E80080FFFCCF80912C018093C2
:1022A000F1008091E8008E77D9CF8091B901813219
:1022B00009F05FCF8091E800877F8093E8000E945B
:1022C0003F0A8091BC018093B50153CF8091B90141
:1022D000813A09F04ECF8091E800877F8093E80033
:1022E0008091E80080FFFCCF8091B501D8CF803885
:1022F00089F0823841F58091BD018F70873018F5E3
:102300008093E9008091EB0085FB882780F910928B
:10231000E90006C08091D901880F9091B601892B00
:102320009091E800977F9093E8008093F1001092DD
:10233000F1008091E8008E7723C0811116C0809152
:10234000BB01813011F18091E80083FF0AC08091C8
:10235000E800877F8093E8008091EB0080628093A3
:10236000EB00AA96E3E00C945125823061F780914E
:10237000BB01811589F01092E9008091E800877F08
:102380008093E8000E943F0ADECF81E0933009F09D
:1023900080E08093D901EFCF8091BD018F702FEF46
:1023A000280F263080F68093E9002091EB0020FF73
:1023B000E2CF933031F48091EB0080628093EB00A8
:1023C000DACF9091EB0090619093EB0021E030E048
:1023D000A90102C0440F551F8A95E2F74093EA0015
:1023E0001092EA008091EB008860E8CF8111ABCFBA
:1023F0001091BB011F778091E3008078812B80933F
:10240000E3008091E800877F8093E8000E943F0A04
:102410008091E80080FFFCCF8091E300806880938A
:10242000E30083E0111101C082E08093DA018BCFD9
:102430008058823008F087CF2091BB013091BC01D9
:102440002C3D53E0350799F583E08A838AE289833E
:102450004FB7F894DE01139620E03EE051E2E32FFF
:10246000F0E050935700849120FF03C082958F7055
:102470003F5F8F708A30C8F0895C90E08D939D93A8
:102480002F5F243161F74FBF8091E800877F8093F1
:10249000E8006AE270E0CE0101960E94E6098091B0
:1024A000E8008B778093E8004ECF805DE6CF832FE6
:1024B00099278330910529F160F48130910509F461
:1024C00075C0029709F03FCF8BE390E0EAEEF6E0AB
:1024D0002CC02091BD013091BE018132910509F4DB
:1024E00059C0829709F02FCF2115310509F468C032
:1024F0002130310509F027CF86EB90E0E0EFF5E0E1
:1025000014C0C90199272130A9F182309105D1F178
:10251000892B09F018CFE7E5F7E0E4918E2F90E0E2
:10252000E7E5F7E0009709F40ECF2091E800277F58
:102530002093E8002091BF013091C00182179307DA
:1025400008F49C0140E02115310509F03EC041111D
:102550003CC08091E80082FDA2CF8091DA01811514
:1025600009F49DCF853009F49ACF8091E80083FF6C
:10257000F0CF95CFE5E4F7E0E4918E2F90E0E5E42D
:10258000F7E0D0CFE7E3F7E0E4918E2F90E0E7E3C8
:10259000F7E0C8CF2115310571F02130310509F080
:1025A000D2CE89E090E0E5E1F7E0BFCF82E190E0B4
:1025B000E5E2F7E0BACF89E090E0ECEFF6E0B5CFE6
:1025C00084E490E0E6EAF6E0B0CF8091DA0181158C
:1025D00009F465CF853009F462CF8091E80083FD6E
:1025E0005ECF8091E80082FDB4CF8091E80080FF4B
:1025F000AACF9091F3008091F2002115310519F0D6
:102600008830910550F041E0089709F040E0809152
:10261000E8008E778093E80096CF44914093F100D4
:102620003196215031090196E8CF803809F08BCEE0
:102630008091E800877F8093E8008091B7018093C4
:10264000F10077CE81117FCE1091BB01123008F0DE
:102650007ACE8091E800877F8093E8001093B701DD
:102660000E943F0A111581F084E08093DA0142E074
:1026700061EC81E00E94C70A42E261EC82E00E94C4
:10268000C70A8091DA015FCE8091E30087FDECCF2D
:1026900081E0EBCF9C014FB7F89480912B0490918F
:1026A0002C04A0912D04B0912E044FBF821B930BDC
:1026B0000895FF920F931F93CF93DF93C62FD42FCC
:1026C000122F8115A9F0609397040E94B60E909383
:1026D000AE018093AD01C77081E001C0880FCA953B
:1026E000EAF70E947A0CCDB7DEB7E5E00C944F25EF
:1026F00080919704681333C08091AD019091AE0131
:102700000E944A13883C910550F500E20D0FCD1749
:10271000A9F0C770FF24F3948F2D01C0880FCA95CC
:10272000EAF70E94840C083048F48D2F877001C0AE
:10273000FF0C8A95EAF78F2D0E947A0C812F0E9458
:10274000AF0F812F0E942010083068F6D77081E00B
:1027500001C0880FDA95EAF70E94840CC4CFC770D5
:1027600081E001C0880FCA95EAF7F6CFA0E0B0E09B
:10277000ECEBF3E10C9430257C01FC0184818115A4
:1027800009F477C061E0C7010E941E08EC01F7015F
:102790008581811509F4E1C391819093960490811C
:1027A0009093950490E290932D01D0939404C0935C
:1027B00093049E0130522115304218F5F70196819D
:1027C000903128F0FE01FF27ED33F10570F11092F2
:1027D0009704CE019057839708F0D3C384E090E02C
:1027E0000E94CC259093A2048093A104FE01E150A5
:1027F000F047E232F10508F058C0EB5CF94D0C945B
:102800009F259E01305421153041C0F29E013A951A
:1028100021153F41B8F29E01205A32452032310540
:10282000B0F2CD33D10530F4FE01E259F64FE49118
:10283000E0932D01FE01E851FC47E730F10538F641
:10284000E95AF94D0C949F2526E241EE61EE0E9473
:1028500059138091A0048770811559F0F701858183
:10286000811539F08091A20482FF03C082E00E94AA
:102870009205CDB7DEB7E8E00C944C2527E245EE93
:1028800065EEE5CF26E241EE60EEE1CF27E245EED0
:1028900064EEDDCF26E241EE62EED9CF27E245EECF
:1028A00066EED5CF28E241E0EBCF8091A1048160B4
:1028B0008093A1046091A1047091A20484E090E04F
:1028C0000E9400260E945310C4CF8091A204886009
:1028D0008093A204EFCF8091A1048260E9CF809120
:1028E000A1048460E5CF8091A1048860E1CF80914C
:1028F000A2048160EDCF8091A2048260E9CF809133
:10290000A1048061D5CF8091A1048062D1CF809154
:10291000A1048064CDCF0E9453108091A1048068EF
:10292000C7CF8091A1048C60C3CF8091A204836043
:10293000CFCF8091A1048E7FBBCF8091A204877FEF
:10294000C7CF8091A1048D7FB3CF8091A1048B7FED
:10295000AFCF8091A104877FABCF8091A2048E7FFF
:10296000B7CF8091A2048D7FB3CF8091A1048F7ED9
:102970009FCF8091A1048F7D9BCF8091A1048F7BFD
:1029800097CF0E9453108091A1048F7791CF8091AF
:10299000A104837F8DCF8091A2048C7F99CF8091F9
:1029A000A104992782FF939590FB82F990FB83F90C
:1029B0007FCF8091A204982F909590FB80F990FB97
:1029C00081F986CF9091A104892F8F7B96FF806437
:1029D0006FCF0E9453109091A104892F97FB87F924
:1029E000805866CF61E08EE090E00E94E22562CFE1
:1029F00060E0F9CF9091A104892F8F7E94FF8061D0
:102A000057CF9091A104892F8E7F90FF816050CF86
:102A10009091A204892F877F93FF886059CF89E224
:102A2000C2C289E2ABC2CA353CE7D30709F483C00E
:102A300008F05BC0C1309CE7D90709F47AC0C33005
:102A4000ECE7DE0709F46FC0C115DC4709F45EC08E
:102A5000F701858100811181811509F470C0C801D9
:102A60000E94EA07C82F682FC8010E942005B801FC
:102A70008C2F0E94D9050E94E706D82FC92FF70195
:102A8000D580C680C2948FE0C8228091A004877050
:102A90008115F9F00D2DD114E9F0892F807F803454
:102AA00061F080E28D0F8830A0F0892F807E803227
:102AB00021F4D23070F0C11461F08091A20482FF41
:102AC00008C082E00E9492058091A004877001E016
:102AD000811100E0EC2FE295EF70C03C08F095C04A
:102AE000F0E0E25AF94D0C949F25CB352CE7D20744
:102AF00021F18091A204002482FF0394802DCC3523
:102B0000DC4709F0A5CF0E94110CA2CF0E94531000
:102B10008FEF94E3ECE081509040E040E1F700C09B
:102B200000000E94D2096FEF7FEF80E090E00E94EA
:102B300000260E94841081E0E6CF80E0E4CFC80147
:102B40000E945505C82F93CF1C2F1F70C03110F065
:102B50001295107FD114B9F0111569F080E28D0F34
:102B6000883010F0D11109C080919904812B809395
:102B700099040E94280C8D2F40C08091A304812BC2
:102B80008093A304F6CF8D2F0E9420101115E9F138
:102B900080E28D0F883010F0D11104C0812F0E9487
:102BA000D10506C010958091A30481238093A304CE
:102BB0000E94280C2AC01C2F1F70C07FC03211F049
:102BC0001295107FD11549F0D13009F46BC0D114A2
:102BD00009F477C0C114C9F1CECF8091A20482FD5F
:102BE00030C0D11469F0111539F080919904812B0E
:102BF000809399040E94280C80E00E94AF0F05C0CA
:102C000080E00E9420101111C9CF0115A9F0809118
:102C1000A00480FD11C0F7011582869586958695E2
:102C20000E94FE04C7010E94B6138091A0048695FD
:102C3000869586950E940E0560E0C7010E941E08D9
:102C400018CED11499F0C11004C0812F0E947A0CC3
:102C5000DCCFF1E0CF12D9CF80919A04912F982345
:102C6000191799F2812B80939A04CFCFC110CDCF41
:102C7000812F0E94840C90919A04812F89238115C1
:102C800029F0812F8095892380939A0480919B0459
:102C9000912F9823911509F4B8CF1095182310930C
:102CA0009B04B3CFD11429F026E0C21608F0ADCFB3
:102CB000CCCF35E0C31608F0A8CF812F0E94840C3A
:102CC000A4CFC114D1F3D93349F48FEF97EEE3E0E9
:102CD00081509040E040E1F700C000008D2F0E943D
:102CE000201093CF8C2F869586958370811569F07F
:102CF000813009F08ACF8D2F9C2F9370D11002C0A4
:102D000080E090E00E941E0980CF8D2F9C2F937051
:102D1000D11002C080E090E00E94F80876CF6D2DBF
:102D20008D2F0E94EA0E71CF8C2F8370811142C0CB
:102D3000D1102FC04D2F429546954770440F440F38
:102D40002D2F2F7030E0042E02C0220F331F0A9463
:102D5000E2F780E090E0D4FF09C08FE090E002C08D
:102D6000880F991F4A95E2F780959095C695C6956C
:102D7000C370C230B1F0C33089F040919C045091CF
:102D80009D04C13049F0822B932B842395230E940C
:102D9000F4040E94E70839CF242B352B822B932B88
:102DA000F6CF822B932B20919C0430919D04822797
:102DB0009327EDCFD11491F1C0FFEBCF4D2F42956A
:102DC00046954770440F440F2D2F2F7030E0042E8E
:102DD00002C0220F331F0A94E2F780E090E0D4FF94
:102DE00009C08FE090E002C0880F991F4A95E2F772
:102DF00080959095C695C695C370C230C1F0C3301A
:102E000099F040919E0450919F04C13059F0822B5B
:102E1000932B842395230E94F904BBCF823008F4BE
:102E2000B8CFCCCF242B352B822B932BF4CF822BF6
:102E3000932B20919E0430919F0482279327EBCF00
:102E4000CF70D11439F08C2F0E94FE048D2F0E9478
:102E50007A0C9FCF8D2F0E94840C8C2F0E940E0520
:102E600098CFD23FB1F170F4D03FC9F0D13F91F08B
:102E7000D11409F45EC0C11409F458C08D2F0E940A
:102E8000AF0F87CFD33F61F1D43F91F79091A20468
:102E900092FD34C08C2F8F71D11401F31EC0D11458
:102EA000A9F0F5E0CF1608F074CFCF7181E090E083
:102EB0009C0102C0220F331FCA95E2F7E9018091FD
:102EC0009E0490919F0482279D27A5CF36E0C316CC
:102ED000EACF8C2F8F71D110C1CF0E94FE0459CF41
:102EE00080E090E0D11409F496CFCF7181E090E0BA
:102EF00002C0880F991FCA95E2F78DCFD11461F0F7
:102F00008C2F8F7192FFE9CF982F990F990F990FFE
:102F100093609093A004E1CF81E00E94920582E04B
:102F2000C81608F436CF0E94920533CF8C2F8F71CC
:102F3000D4CFC11479F0D93349F49FEFE7EEF3E031
:102F40009150E040F040E1F700C000008D2F0E945A
:102F500020101FCF8C2F8F7181CFFE01E851FC47CD
:102F6000E730F10508F46CCCC631DC4709F070CDD0
:102F700080919804811509F454CD85E30E94780965
:102F800014C0C631FCE7DF0709F04DCD80919904EC
:102F90008A7A91E0811101C090E0909398048115A4
:102FA00009F43DCD85E30E9444090E94280C51CCD0
:102FB0008091E404803178F48091E304811559F024
:102FC000E091A5042091A4043091DF044091DE0437
:102FD00057E02E1301C008956E2F70E05E9FF00140
:102FE0001124DF01AA55BB4F14968C9114978115BB
:102FF00061F111968C911197831327C08C918413E2
:1030000024C015968C91159781111FC012968D9131
:103010009C91A091E004B091E1048A1B9B0B883C39
:10302000910598F48091E4048F7080618093E404AA
:10303000E455FB4F80818F70806180838EED94E03A
:103040000E94B6130E9488050895FB013196E7702F
:10305000C0CFADE0B0E0EFE2F8E10C942B258C019D
:1030600086E0F801DE01189601900D928A95E1F74D
:10307000F801F580C4808EED882E84E0982E709043
:10308000E204711020C0C114D9F0F11409F41CC17C
:10309000C8010E944D08811509F416C187E0F801A6
:1030A000D40101900D928A95E1F7F1E0CF1206C0AC
:1030B0008091DE049091DF040E943E080E94D817A0
:1030C000FF24F39454C0E080A280B380D090E30446
:1030D0008091E0049091E1049501281B390BD114F3
:1030E00009F4BAC0283C310508F090C0C11441F37E
:1030F0009091DF04C1808091E404803108F058C0D1
:10310000C91214C09091DE049E1110C0F1104AC083
:103110008F7080618093E4048EED94E00E94B6137A
:103120008091E404F8018683F12C21C0F1103AC0AB
:1031300040E06C2D8E2D0E94520B40E06C2D8E2DA8
:103140000E94520BF82E8111EFCF888599850E943D
:103150003E08292F22952F70903470F49F702230F2
:10316000A0F09115B1F0F8019681903190F48F2D77
:103170002D96EDE00C9447252A5F2F70223068F0E1
:10318000C8010E94B613FD2CF2CF911511F08115E4
:1031900071F3805E883058F3F3CF803F40F3815F56
:1031A0008330F9CF8091E40481608093E404BCCF44
:1031B000C91207C09091DE049E1103C0F11409F4F6
:1031C0006CC0C8010E944D08811509F47DC0F1143E
:1031D00009F47AC08091E404803278F02091DE0412
:1031E0003091DF043A832983BC82AB827D821E82C8
:1031F0008F83CE0101960E94B61387E0F801AEEDF1
:10320000B4E001900D928A95E1F758CF8091E404E3
:10321000803150F48EED94E00E94B61387E0F40103
:1032200011928A95E9F780CFC11409F449CF209112
:10323000DF0491812913C5CF9091DE049E11C1CF87
:10324000F110BFCF8683C8010E94B61387E0F40156
:1032500011928A95E9F734CF283C3105F8F6C1146C
:1032600009F42ECFF11481F19091DF04818198133C
:1032700021C08091DE048E111DC08091E40480FD88
:1032800010C0803170F08683807F803F39F0868166
:10329000982F907F905F8F70892B8683C8010E9442
:1032A000B61387E0F801AEEDB4E001900D928A9577
:1032B000E1F706CFC8010E944D0881119ECF809191
:1032C000E40481608093E404C8010E94B613F8CE40
:1032D000ABE1B0E0EEE6F9E10C9434254E8B5F8B68
:1032E000688F798F8A8F192F9B8F91111092A30469
:1032F0001D8A86E0FE017696DE011F9601900D92F2
:103300008A95E1F70A8D011539F00B8B1C8B61E072
:10331000CE010F960E941E080B8B1C8B87E0FE01CE
:103320003F96DE01189601900D928A95E1F7CE0145
:1033300008960E942918811128C02091A404309178
:10334000A50487E0FE013896DE01119601900D92EA
:103350008A95E1F78C858115C1F0822F90E0019666
:103360008770992738171906D9F097E0929FD001F6
:103370001124AA55BB4FFE01319601900D929A95EA
:10338000E1F78093A4040E94880517E08091A504CA
:103390009091A404891312C06B96E4E00C9450251C
:1033A0000E9453101092A4041092A50487E0EEED41
:1033B000F4E0DF011D928A95E9F7E7CF189FC0017D
:1033C00011248A559B4F0E942918811529F3809159
:1033D000A50490E00196877099278093A504D6CF25
:1033E000A6E0B0E0E6EFF9E10C9434250E94B60EB9
:1033F0008C0180914604909147048017910779F0E1
:1034000019821A820E94B60EBC0149815A8180E05D
:1034100090E00E9468191093470400934604269692
:10342000E4E00C945025ACE0B0E0E9E1FAE10C9462
:103430002725FE01319688E0DF011D928A95E9F784
:103440008EE2E82E81E0F82E8F0192E3692E91E062
:10345000792E2F01AA24A394B12C38E3832E31E0D6
:10346000932EF70181917F018F3F09F43EC0F894BC
:10347000E82FE295EF70F0E021A18F70A50102C066
:10348000440F551F8A95E2F7CA01922F982B91A3FA
:1034900092A18095892382A3789400C0E2E3F1E0B1
:1034A00031E0312C21912F3F79F0A22FA295AF70FE
:1034B000A05EB0E08C9190E02F7002C0959587954A
:1034C0002A95E2F780FF75C080E0382A330F8E1608
:1034D0009F0641F7F70182918F3F11F00E947B0810
:1034E00050EA5A95F1F7D8013C920F5F1F4F6E14C6
:1034F0007F0409F0B6CF48E050E0B2018EEC91E0D5
:103500000E94AE256C01892B41F088E0F201AEECFF
:10351000B1E001900D928A95E1F70091D70110E09A
:1035200005521E4FC114D10409F445C081E08093B7
:10353000AB010E94B60E9093AA018093A9018091DD
:103540004004811509F48EC07E01B9E0EB0EF11C38
:1035500084E0F70111928A95E9F78091AC018A30F5
:1035600008F04BC042EE5CE0B701C8010E94D70BE7
:10357000811509F465C04BE85CE0B701C8010E9401
:10358000D70B811509F45CC01092AC018091D60173
:1035900090E044E050E0B70185529E4F0E94AE2576
:1035A00021E02093A801892BE9F52C96E1E10C9408
:1035B0004325832F8ACF8091AB01811509F4BFCFBA
:1035C0008091A9019091AA010E944A13059708F4DD
:1035D000B6CF44E050E06EEC71E0C8010E94AE2529
:1035E000892B41F084E0EEECF1E0D80101900D92DE
:1035F0008A95E1F71092AB01A2CF8091A60190913C
:10360000A7010E944A13843F914008F0ABCF8091FC
:10361000A801811551F284E0D7011D928A95E9F73E
:103620001092A801E091D601F0E0E552FE4F8985A5
:103630009A85AB85BC8580839183A283B383B5CF04
:103640008091AC018F3F39F40E94B60E9093A70190
:103650008093A601DCCF8F5F8093AC018A3008F4A1
:1036600095CFF2CFF80180819181A281B3818093BF
:10367000300490933104A0933204B093330480E378
:1036800094E00E94AE0A80932F04C0903404D0903E
:103690003504E0903604F09037048091A2019091B7
:1036A000A301A091A401B091A501C816D906EA060C
:1036B000FB0609F47ACFC092A201D092A301E09256
:1036C000A401F092A5010E94A409C61AD70AE80A2B
:1036D000F90AC0924204D0924304E0924404F0926A
:1036E000450463CFCDB7DEB760970FB6F894DEBF61
:1036F0000FBECDBF85B7806885BF85B7806885BFA1
:1037000084B7877F84BF0FB6F894A8958091600036
:10371000886180936000109260000FBE80E890E0A6
:103720000FB6F89480936100909361000FBE89E713
:1037300098E090937901809378010E948F0A0E940B
:10374000F70A8091E20084608093E200789480918F
:10375000DA01811599F08091E9001091EC008F70E9
:10376000179511271795182B1092E9008091E80002
:1037700083FD0E949A101F701093E90082E084BDBF
:1037800093E095BD9AEF97BD80936E00109242042E
:1037900010924304109244041092450488EC90E087
:1037A0002091E30027FD0EC0AFE3BCE91197F1F7CC
:1037B00000C000000197A1F70E948F0A1092DA0161
:1037C00080E001C081E08093400491E098279093CD
:1037D00041049093000181110E94B0238091000167
:1037E0008091000191E08927880F880F8093D7018D
:1037F00094E0981B9093D60184E90E947B0886E6AA
:103800000E947B0887E90E947B0886EC0E947B0867
:1038100002E311E0F80181918F018F3F11F00E94C6
:103820007B08F1E008331F07A9F788E0EBEDF1E032
:10383000DF01282F1D922A95E9F7EEECF1E0DF0178
:103840001D928A95E9F780E090E00E94CC25853EA4
:103850009E4F09F461C065EE7EEF80E090E00E942B
:10386000002660E082E090E00E94E22581E090E0A6
:1038700090939D0480939C0461E083E090E00E941B
:10388000E22560E074E184E090E00E94002660E0C0
:1038900086E090E00E94E22560E087E090E00E94F0
:1038A000E22540E050E0BA0188E090E00E94F42573
:1038B00060E083E290E00E94E22560E08CE090E02E
:1038C0000E94E22560E08DE090E00E94E2251982EE
:1038D0001A821B821C821D821E821F82188648E06B
:1038E00050E067E170E0CE0101960E94D22540E0F1
:1038F00050E0BA018FE190E00E94F42540E050E0F2
:10390000BA018FE090E00E94F42540E050E0BA0157
:1039100083E190E00E94F42582E090E00E94C425BB
:103920008093E30184E090E00E94CC259093A20470
:103930008093A1040E94131AEFEFF6E721E0E15013
:10394000F0402040E1F700C000000E94131AE0910F
:10395000410411E0E127EE0FEE0FF0E0E552FE4FDB
:10396000808181FF08C06FEF7FEF80E090E00E94D0
:1039700000260E94D20983E090E00E94C42590E0D6
:103980000E94F404809140048127880F80931604DC
:1039900080E88093EE010E9435226BE070E082E7C0
:1039A00097E00E94890D811509F43FC080911604AB
:1039B00065E070E081FDA6C08DE697E00E94890D6C
:1039C000811599F16DE070E08BE597E00E94890D1B
:1039D000811559F10E94A409DC01CB01805A95415F
:1039E000AF4FBF4F80931A0490931B04A0931C0405
:1039F000B0931D04E6E1F2E080E092E0DF019C017B
:103A00001D9221503040E1F7F093ED01E093EC017D
:103A10008FEF9FEF909319048093180481E08093B7
:103A2000210480931E041092170480914004811198
:103A300002C00E94B32381E091E0909369048093D7
:103A40006804CE010196BAE02B2E312C412C512C6A
:103A50008D879E878091DA0110E400E1A2E1FA2EC1
:103A6000853009F486C00E94131A04EE11E0FBEDC4
:103A7000EF2EF1E0FF2ED701F80191918D912CEE00
:103A800031E02E173F0709F47EC09817B1F38090FC
:103A90004004D12CD701CD907D01F80191908F0188
:103AA0009C1439F19C24B12CAA24A394892D8A2139
:103AB0008115C1F08114B1F0B982DA820E94B60E8C
:103AC0009C838B83F1E0FD8391E08C2D8A21811111
:103AD00001C090E09E8349815A816B817C818D81F8
:103AE0000E946819B394AA0C26E0B212DFCFF80145
:103AF000C292D39438E0D312CDCF0E94B009DD2416
:103B0000D39446C088E697E059CF8091DA0184309B
:103B100029F10E94960D1092D80188E190E00FB62D
:103B2000F894A895809360000FBE1093600083B74F
:103B3000817F846083BF83B7816083BF78948895D9
:103B400083B78E7F83BF0FB6F894A89580916000ED
:103B5000886180936000109260000FBE0E94131A6B
:103B6000EBEDF1E081918111C9C291E0E33EF907EB
:103B7000C9F78091DA01853009F4C7CF0E9453104C
:103B80000E94E70870CF981382CF0E94F019D12CC1
:103B900080912104811509F4AAC080911F0490919D
:103BA00020040E944A13C29708F481C00E94B60EF6
:103BB0009093200480931F0486E192E09093ED019E
:103BC0008093EC0180914004811509F4AFC186EE29
:103BD00097E00E947B0E40919E0430919F04832FBA
:103BE00090E028E0311103C020E0842F932FAC0136
:103BF000E4E056954795EA95E1F74115510511F036
:103C00002C5FCA01AC0156954795569547954115CD
:103C1000510511F02E5FCA0196958795820F82306B
:103C200009F44BC108F041C1811144C18EED97E008
:103C30000E94890E80919604805D0E94CC0D83ECD9
:103C400097E00E947B0E80919504805D0E94CC0DD0
:103C50008FEB97E00E947B0E8090930490909404E9
:103C600080910B0190910C018816990609F02BC1E7
:103C70008091F501803209F026C1EFEEF1E08F016D
:103C800081918032E1F3F80101900020E9F79F0172
:103C90002150310979010E151F0508F441C18DEB42
:103CA00097E00E947B0E80912D010E94CC0D8091A7
:103CB000180490911904892B09F03DC180911E04CC
:103CC0008115A9F00E94A40900911A0410911B0407
:103CD00020911C0430911D04601B710B820B930B0F
:103CE0006F3F7F4F8F4F9F4710F40E94960DD1106A
:103CF0000E94A80D86E0EDE8F4E0AD85BE85019058
:103D00000D928A95E1F7C0908E04F0908F04109187
:103D10009004E09091040091920410928F0410920C
:103D200090041092910410929204812F8F29811592
:103D300009F440C080912404909125040E944A1304
:103D40003C0180918B04811509F4D2C195E169167B
:103D5000710480F18F3F19F08F5F80938B04F11411
:103D600059F00E94A20891E01F140CF09FEF899F68
:103D7000802D112480938F04111559F00E94A20800
:103D800091E011160CF09FEF899F802D11248093F4
:103D9000900480918F04811569F0D0909004D11423
:103DA00049F00E94940880938F048D2D0E949408FE
:103DB00080939004802F8E29811509F442C0809150
:103DC0002204909123040E944A1389879A87809144
:103DD0008A04811509F486C1A985BA85A135B10582
:103DE00080F18F3F19F08F5F80938A04E11459F0BE
:103DF0000E94C20891E01E140CF09FEF899F802D55
:103E0000112480939104011559F00E94C20891E099
:103E100010160CF09FEF899F802D1124809392043F
:103E200080919104811569F0E0909204E11449F0C9
:103E30000E949408809391048E2D0E949408809390
:103E4000920480918E04C81219C080918F0481154C
:103E500011F08F1113C020919004211511F012134D
:103E60000DC090919204911511F0091307C0309183
:103E70009104311103C0822B892B81110E94C20E43
:103E800086E0ED85FE85ADE8B4E001900D928A955F
:103E9000E1F70E94E70890912604891709F4DACD2A
:103EA000809326040E94A409D5CD833049F085EC87
:103EB00097E0BECE88ED97E0BBCE82ED97E0B8CE1E
:103EC0008BEC97E0B5CE90920C0180920B0180E2D2
:103ED0008093F501A12CB12C1092F40154EFE52E42
:103EE00051E0F52E00E010E0C501B401A2019101FE
:103EF0000E947D25605D603341F40115110529F0B4
:103F000089288A288B2809F460E2D7016E937D0105
:103F100049015A010F5F1F4F0530110529F7ADCE3A
:103F2000D8018D918D010E94CC0DB5CE8DE797E023
:103F30000E947B0EBCCE80912104811509F4BECE77
:103F4000809117048111BACE0E94A80D2091180407
:103F5000309119042115310509F4B0CE10E0812FFC
:103F600090E0EE24E394F12C012E02C0EE0CFF1C35
:103F70000A94E2F7A70142235323452B11F41F5F54
:103F8000EECF2091160420FF9AC0912F990F990F20
:103F9000990F37E0390F80E023E090930F01809371
:103FA0001201309310012093130124E630E047E022
:103FB00050E06DE071E088E70E946B22892B09F0E8
:103FC0007DCEB0E21B9FA00111248091160480FFDA
:103FD00082C0E6EFF1E080E2DF011D928A95E9F709
:103FE000ECE3F1E0F88BEF8708E311E0AF85B889E7
:103FF0006D91B88BAF87F80181918F01840F952F58
:10400000911D9C012A5E3D4F3C872B87E62FF0E0F7
:10401000EA50FE4F20E030E087E0982E921ACC2440
:10402000C394022E01C0CC0C0A94EAF7AB84BC8482
:1040300090E0D5018D915D018C21692D691B677020
:1040400070E0B82F062E01C0BB0F0A94EAF77195F5
:10405000619571096770772701C086956A95EAF7BF
:104060008B2B6081682B60839F5F983011F72F5FE7
:104070003F4F31962830310579F6E0E4F1E02F85A5
:104080003889E217F30709F0B1CF04E610E020E227
:1040900030E046EF51E060E488E70E940523892B79
:1040A00009F00CCEE094F0948091180490911904DA
:1040B0008E219F219093190480931804FFCD96952B
:1040C000879596958795282F912F9295990F9076A1
:1040D0003FE1390F62CF4A5E5D4F04E610E020E217
:1040E00030E0D9CFE985FA853B9708F07CCEA9CEA0
:1040F000FBE06F16710408F02FCE5CCE8091D901E1
:10410000811509F436CD09BDF9BC09B400FEFDCF17
:104110008091D8008F7D8093D8008091E0008260EC
:104120008093E0008091E00081FDFCCF0E9453105D
:1041300020CD78941F921FB61F9211248F939F93C6
:10414000AF93BF9380912B0490912C04A0912D04E8
:10415000B0912E040196A11DB11D80932B04909364
:104160002C04A0932D04B0932E04BF91AF919F9186
:104170008F911F901FBE1F9018951F920F920FB620
:104180000F9211242F933F934F935F936F937F93DD
:104190008F939F93AF93BF93EF93FF938091E10031
:1041A00082FF09C08091E20082FF05C08091E1009A
:1041B0008B7F8093E1008091DA0080FF24C08091A2
:1041C000D80080FF20C08091DA008E7F8093DA00D3
:1041D0008091D90080FF9BC080E189BD82E189BDCB
:1041E00009B400FEFDCF81E08093DA018091B8012F
:1041F000811109C00E948F0A0E94F70A8091E20093
:1042000084608093E2008091E10080FF17C080917C
:10421000E20080FF13C08091E2008E7F8093E20075
:104220008091E20080618093E2008091D8008062FA
:104230008093D80019BC85E08093DA018091E10079
:1042400084FF29C08091E20084FF25C080E189BD00
:1042500082E189BD09B400FEFDCF8091D8008F7D39
:104260008093D8008091E1008F7E8093E10080915F
:10427000E2008F7E8093E2008091E2008160809373
:10428000E2008091B701811509F447C084E0809372
:10429000DA018091DA018091E10083FF27C08091EB
:1042A000E20083FF23C08091E100877F8093E100DB
:1042B00082E08093DA011092B7018091E1008E7F55
:1042C0008093E1008091E2008E7F8093E2008091F4
:1042D000E20080618093E20042E060E080E00E94C2
:1042E000C70A8091F00088608093F000FF91EF9101
:1042F000BF91AF919F918F917F916F915F914F91FE
:104300003F912F910F900FBE0F901F90189519BCE1
:104310001092DA011092B80176CF8091E30087FF06
:1043200002C083E0B4CF81E0B2CF1F920F920FB6EC
:104330000F921124EF92FF920F931F932F933F93AD
:104340004F935F936F937F938F939F93AF93BF939D
:10435000CF93EF93FF9309EE10E0F8018081C091B5
:10436000EC008F70C795CC27C795C82B108280EFC3
:10437000E82EF12CF7018081877F808378940E945A
:104380009A10F8011082F701808188608083CF70D5
:10439000F801C083FF91EF91CF91BF91AF919F91B1
:1043A0008F917F916F915F914F913F912F911F91CD
:1043B0000F91FF90EF900F900FBE0F901F901895E8
:1043C000FF920F931F93CF93DF93182FEB0110925F
:1043D000BC0084EA8093BC000E94B60E082FF92E20
:1043E0008091BC0087FF28C08091B900887F883009
:1043F00029F08091B900887F8031A1F51093BB002E
:1044000084E88093BC000E94B60E182F092F80917B
:10441000BC0087FF1FC02091B900287F80E090E09A
:10442000283199F081E090E0203411F480E090E0B0
:1044300091958195910909C0802F9F2D0E944A1363
:10444000C817D90768F68EEF9FEFCDB7DEB7E5E066
:104450000C944F25812F902F0E944A13C817D9071B
:10446000B0F6F1CF8FEF9FEFF0CF1092B9008CE054
:104470008093B80008950F931F93CF93DF93EB01C0
:104480008093BB0084E88093BC000E94B60E182F76
:10449000092F8091BC0087FF11C02091B900287FAF
:1044A00081E090E0283211F480E090E091958195D0
:1044B0009109DF91CF911F910F910895CF3FDC07B4
:1044C00041F3812F902F0E944A13C817D90708F78C
:1044D0008EEF9FEFEECFA0E0B0E0E1E7F2E20C94C8
:1044E0002B25782EB62EA72E6A01E9010E94B60E62
:1044F0004C01C431D10528F1CF3FDC0731F1CE01A9
:1045000064E170E00E941225F62EE72E6F2D7E2DBD
:10451000872D0E94E0218C01892BD1F4EB2CFA2C01
:10452000CE0CDF1CEC14FD0419F001151105D1F0BF
:1045300084E98093BC00C801CDB7DEB7EDE00C94F0
:104540004725FF24F394E12CE1CF85E0F82EFBCF43
:10455000CF3FDC07D9F2C4010E944A13C817D9071C
:10456000A8F6DCCFBE01F70181917F010E943B22BA
:104570008C01D8CFA0E0B0E0E0ECF2E20C942B2567
:10458000782EB62EA72E6A0189010E94B60E4C0124
:104590000431110518F10F3F100719F1C80164E14A
:1045A00070E00E941225EB01BE01872D0E94E021E0
:1045B0007C01892BC1F4CB2DDA2DCC0EDD1ECC1560
:1045C000DD0519F0E114F104C1F084E98093BC0029
:1045D000C701CDB7DEB7EDE00C944725C1E0D0E0D0
:1045E000E3CFC5E0FCCF0F3F1007F1F2C4010E94FA
:1045F0004A1308171907C0F6DECFFE018491B801EF
:104600000E943B227C012196DACFA0E0B0E0EBE0F3
:10461000F3E20C942A25682E962E5A01690178013E
:104620000E94B60E782E892E0431110530F10F3F0D
:10463000100731F1C80164E170E00E941225162FC5
:10464000072F612F702F862D0E94E021EC01892B0E
:10465000C9F0FFEFEF16FF06A1F3872D982D0E94FA
:104660004A13E816F90668F784E98093BC00CE0186
:10467000CDB7DEB7EEE00C94462511E000E0E1CFC7
:1046800015E0FCCFB701892D0E943B22EC0185018A
:10469000CA0CDB1C0C151D0539F3209729F7B7014F
:1046A000F80181918F010E943B22EC01F3CF8EE152
:1046B0004B9B02C08A95E1F74B9BFECF08955B9818
:1046C00080E28A95F1F75B9A0895FC013BE03A9508
:1046D000F1F798E020E080E031E040E14A95F1F721
:1046E000880F4B9B02C08160232742E04A95F1F777
:1046F000000040E14A95F1F79A9579F790E19A9593
:10470000F1F799B132E03A95F1F7000040E14A95AE
:10471000F1F793FB992790F992272081920F9083CC
:104720000895A1E0B0E0E7E9F3E20C9432251982A4
:104730008C017C01E60EF11C0E945723CE010196EC
:104740000E946523F80181938F01EE15FF05A1F703
:1047500081E09981911180E02196E6E00C944E254C
:10476000539A5B9A089553985B9AEB9AE9E6F0E0C6
:1047700080818F73808308956150770B91E001C031
:10478000990F6A95EAF7692F90E021E0611108C05E
:10479000911599F05B9A80E28A95F1F75B980895FC
:1047A000362F3823311539F05B9A922730E23A954B
:1047B000F1F76695EBCF5B98F9CF5B98ECCFFF9262
:1047C0000F931F93CF93DF93EC018C01060F111D04
:1047D000F9900E945F2368E08F2D0E94BC23C017D0
:1047E000D107B1F7CDB7DEB7E5E00C944F251F92A6
:1047F0000F920FB60F9211240F931F932F933F9395
:104800004F935F936F937F938F939F93AF93BF93D8
:10481000EF93FF93CF93DF930F92CDB7DEB719825B
:104820000E945723CE0101960E946523082F06950A
:1048300006950695982F92959570202F2570920FCA
:10484000292F237096959695920F982797708981B6
:10485000892B811509F05CC0043008F059C080E153
:104860008A95F1F75B9A539A82E08A95F1F700C036
:104870005B9888E0089F80011124D801AC5EBE4F90
:104880001696ED91FC9117973097A9F06091400131
:104890007091410114962D913C911597260F371F69
:1048A00011968D919C911297680F791F13964C91D8
:1048B00013978C910995F801EC5EFE4F63816115A9
:1048C00051F0209140013091410184819581820F06
:1048D000931F0E94DF230E945F2380E18A95F1F7F6
:1048E0005B9853985B9A80E18A95F1F7F801EC5E4A
:1048F000FE4F6081611551F02091400130914101DE
:1049000081819281820F931F0E9491230E945723DD
:104910000F90DF91CF91FF91EF91BF91AF919F9158
:104920008F917F916F915F914F913F912F911F9147
:104930000F910F900FBE0F901F9018950F931F931C
:10494000CF93DF938C0104970CF064C0F894539AD2
:104950005B9885E08A95F1F70000C02FC695C57079
:10496000802F8570C80F8C2F8370C695C69593E0F5
:10497000000F111F9A95E1F7C80FC8018C2BEC01AD
:104980000E945F2300C068E08C2F0E94BC2390E14E
:104990009A95F1F753985B9A4B9B35C087E090E06E
:1049A0004B9933C0F801EC5EFE4F6381611561F0F5
:1049B000209140013091410184819581820F931FA4
:1049C0000E949123811519F10E94572380E28A9554
:1049D000F1F75B98539A90E19A95F1F7F801EC5E44
:1049E000FE4F6081611551F02091400130914101ED
:1049F00081819281820F931F0E94DF230E945F2397
:104A0000789481E008C000C0C7CF019749F4539A59
:104A10005B9A789480E0DF91CF911F910F91089578
:104A200000C0BECFAA1BBB1B51E107C0AA1FBB1F02
:104A3000A617B70710F0A61BB70B881F991F5A952A
:104A4000A9F780959095BC01CD0108952F923F92D2
:104A50004F925F926F927F928F929F92AF92BF928E
:104A6000CF92DF92EF92FF920F931F93CF93DF933A
:104A7000CDB7DEB7CA1BDB0B0FB6F894DEBF0FBE97
:104A8000CDBF09942A88398848885F846E847D84E4
:104A90008C849B84AA84B984C884DF80EE80FD80E6
:104AA0000C811B81AA81B981CE0FD11D0FB6F8945C
:104AB000DEBF0FBECDBFED010895992778E0880FC6
:104AC000991F961708F0961B881F7A95C9F780954D
:104AD000089597FB072E16F4009407D077FD09D0B0
:104AE0000E94122507FC05D03EF4909581959F4FBA
:104AF0000895709561957F4F0895A1E21A2EAA1B23
:104B0000BB1BFD010DC0AA1FBB1FEE1FFF1FA2177D
:104B1000B307E407F50720F0A21BB30BE40BF50B7A
:104B2000661F771F881F991F1A9469F76095709503
:104B3000809590959B01AC01BD01CF010895EE0FCA
:104B4000FF1F0590F491E02D0994FB01DC0102C0E8
:104B500005900D9241505040D8F70895FB01DC01BB
:104B600004C08D910190801921F441505040C8F744
:104B7000881B990B0895FB01DC0102C001900D9286
:104B800041505040D8F70895F999FECF92BD81BDAC
:104B9000F89A992780B50895A8E1B0E042E050E086
:104BA0000C940826DC01A40FB51F4150504048F07A
:104BB000CB01840F951F2E910E94E3254150504058
:104BC000D0F70895262FF999FECF92BD81BDF89AAE
:104BD000019700B4021639F01FBA20BD0FB6F89441
:104BE000FA9AF99A0FBE08950396272F0E94E3259B
:104BF0000E94E225252F0E94E325242F0C94E32513
:104C00000196272F0E94E3250C94E225DC01CB01BD
:104C1000FC01F999FECF06C0F2BDE1BDF89A3196CC
:104C200000B40D9241505040B8F70895F894FFCF6A
:104C3000F60EFE0E010F070F1C0F1C0F1C0F1C0F92
:104C40001C0F1C0F1C0F1C0F0A0F0F0F130F190F37
:104C50002A0F300F340F77119D11A3119D11A3114D
:104C6000F6111812A3111513221399140115A1148A
:104C70006B146F14A5147314A914B5147F14FA14CB
:104C80008314B9148714BD14E2148B14C114E914ED
:104C90009114C714CF147714AD147B14B114951468
:104CA000CB14D914F214F81465149D140815421489
:104CB000461424143E144A144E145214A415A41578
:104CC000DB15DB1572168F160516051694162017C0
:044CD0003117311750
:104CD40001E309AB0BC20BC90BD00BFF0000210091
:104CE4007F22000300000001000000000000000417
:104CF400010000000405000000000000012094668B
:104D040097C6F4F5F6F731330008101818100800A8
:104D14002F04E200E900EA00B500B600B700CD00B8
:104D24008301CC008A01920194012102230224020E
:104D34002502260227022A02B300B4006F00700085
:084D44009F01CB019F02A002B8
:00000001FF
